:100000000C9462000C948A000C948A000C948A0070
:100010000C948A000C948A000C948A000C948A0038
:100020000C948A000C948A000C948A000C9490031F
:100030000C948A000C948A000C948A000C948A0018
:100040000C9446030C948A000C948A000C948A0049
:100050000C948A000C948A000C948A000C948A00F8
:100060000C948A000C948A000000000023002600F3
:10007000290000000000240027002A0000000000E2
:10008000250028002B0004040404040404040202D4
:100090000202020203030303030301020408102007
:1000A0004080010204081020010204081020000012
:1000B0000008000201000003040700000000000027
:1000C00000009C0611241FBECFEFD8E0DEBFCDBFDD
:1000D00011E0A0E0B1E0E8E2F7E102C005900D9286
:1000E000A238B107D9F721E0A2E8B1E001C01D9222
:1000F000AC3AB207E1F710E0C2E6D0E004C02197C5
:10010000FE010E94B408C136D107C9F70E94470416
:100110000C94920B0C940000833081F028F4813011
:1001200099F08230A9F008958730A9F08830C9F09D
:100130008430B1F4809180008F7D03C08091800075
:100140008F7780938000089584B58F7784BD08955C
:1001500084B58F7DFBCF8091B0008F778093B00006
:1001600008958091B0008F7DF9CF1F93CF93DF93D7
:10017000282F30E0F901E255FF4F8491F901E6564E
:10018000FF4FD491F901EA57FF4FC491CC23A9F056
:10019000162F81110E948C00EC2FF0E0EE0FFF1F54
:1001A000E458FF4FA591B4918FB7F894EC911111D9
:1001B00008C0D095DE23DC938FBFDF91CF911F91D4
:1001C0000895DE2BF8CFCF93DF9390E0FC01E65645
:1001D000FF4F24918A579F4FFC0184918823D1F0CF
:1001E00090E0880F991FFC01EE58FF4FA591B49144
:1001F000FC01E458FF4FC591D49161110EC09FB727
:10020000F8948C91E22FE0958E238C932881E22341
:10021000E8839FBFDF91CF9108958FB7F894EC9159
:10022000E22BEC938FBFF6CF3FB7F894809190010B
:1002300090919101A0919201B091930126B5A89B54
:1002400005C02F3F19F00196A11DB11D3FBFBA2F68
:10025000A92F982F8827BC01CD01620F711D811D28
:10026000911D42E0660F771F881F991F4A95D1F7AD
:100270000895AF92BF92CF92DF92EF92FF920F93C9
:100280001F93CF93DF936C017B018B01040F151F2C
:10029000EB015E01AE18BF08C017D10759F0699194
:1002A000D601ED91FC910190F081E02DC6010995F8
:1002B000892B79F7C501DF91CF911F910F91FF90A5
:1002C000EF90DF90CF90BF90AF900895089590E0A9
:1002D00080E008958F929F92AF92BF920F931F93E9
:1002E000CF93DF93CDB7DEB7A1970FB6F894DEBFFB
:1002F0000FBECDBF19A2423008F44AE08E010F5D57
:100300001F4F842E912CB12CA12CA50194010E9489
:10031000D906E62FB901CA01EA3044F5E05DD801FB
:10032000EE938D01232B242B252B79F790E080E091
:10033000109769F0FD0101900020E9F73197AF01B6
:100340004A1B5B0BBD0184E991E00E943901A19633
:100350000FB6F894DEBF0FBECDBFDF91CF911F91D6
:100360000F91BF90AF909F908F900895E95CD7CF89
:10037000CF93DF93EC0160E08E810E94B50061E0D5
:100380008E810E94B50060E08E810E94B5008BE8EE
:1003900091E00197F1F7DF91CF910895CF92DF922D
:1003A000EF92FF920F931F93CF93DF936C017C0129
:1003B00087E0E80EF11CD0E0C0E0062F10E0B801A5
:1003C0000C2E02C0759567950A94E2F76170F701EB
:1003D00081917F010E94B5002196C430D10579F743
:1003E000C601DF91CF911F910F91FF90EF90DF90A9
:1003F000CF900C94B801CF92DF92EF92FF920F93BF
:100400001F93CF93DF93EC01F62E642F8C810E9413
:10041000B5008D818F3F19F060E00E94B5000F2D6F
:1004200010E08F8584FF25C06E0187E0C80ED11CC7
:10043000F12CE12CB8010E2C02C0759567950A9439
:10044000E2F76170F60181916F010E94B500FFEF44
:10045000EF1AFF0A88E0E816F10461F7CE01DF9198
:10046000CF911F910F91FF90EF90DF90CF900C9460
:10047000B801B80184E0759567958A95E1F7CE01DA
:100480000E94CE016F2DCE01DF91CF911F910F9170
:10049000FF90EF90DF90CF900C94CE0140E0682F5A
:1004A00084E991E00C94FB01CF93DF93823029F42F
:1004B0009091A30198609093A3018093A70110925B
:1004C000A80180E48093A90180E18093AA0180E5DE
:1004D0008093AB0161E0809198010E94E3008091DC
:1004E00099018F3F19F061E00E94E30061E0809183
:1004F0009A010E94E300C4E9D1E09E0124593140F1
:100500008091A30184FD0BC084E090E02196281720
:10051000390744F461E08E810E94E300EECF88E069
:1005200090E0F4CF8BE39DE00197F1F760E08091DC
:1005300098010E94B50060E080919A010E94B50088
:10054000809199018F3F19F060E00E94B500809181
:10055000A30184FD39C063E084E991E00E94CE01EB
:10056000CBE4D6E4CE010197F1F763E084E991E0B2
:100570000E94CE012197F1F763E084E991E00E94A7
:10058000CE0183E592E00197F1F762E084E991E022
:100590000E94CE018091A30180620E944E0284E0FD
:1005A0008093A4018CE00E944E0281E00E944E02E2
:1005B0008BE39FE10197F1F782E08093A50186E04C
:1005C000DF91CF910C944E0280620E944E028BE428
:1005D00096E40197F1F78091A30180620E944E0298
:1005E00083E592E00197F1F78091A30180620E9478
:1005F0004E02D0CF41E00E94FB0181E090E00895DF
:10060000CF92DF92EF92FF926C0181E00E944E0246
:100610008BE39FE10197F1F7E1E08091A701811160
:10062000E0E0E195F0E0EC56FE4F848980680E949E
:100630004E024DE050E06FE671E084E991E00E94E7
:1006400039010D2C000CEE08FF084AE0C701B60185
:10065000F7FE0EC041E06DE284E991E00E94FB01EB
:1006600066277727CB016C197D098E099F094AE01F
:100670000E946A0141E050E06DE771E084E991E099
:10068000FF90EF90DF90CF900C9439011F920F9262
:100690000FB60F9211242F933F938F939F93AF9395
:1006A000BF9380918C0190918D01A0918E01B091AA
:1006B0008F0130918B0123E0230F2D3758F50196E0
:1006C000A11DB11D20938B0180938C0190938D010E
:1006D000A0938E01B0938F01809190019091910130
:1006E000A0919201B09193010196A11DB11D80933B
:1006F000900190939101A0939201B0939301BF91C7
:10070000AF919F918F913F912F910F900FBE0F90BE
:100710001F90189526E8230F0296A11DB11DD2CF78
:100720001F920F920FB60F9211241F932F933F9396
:100730004F935F936F937F938F939F93AF93BF93E9
:10074000CF93DF93EF93FF9380918A01882319F170
:100750008091860191E0980F9093860181111BC0D2
:10076000C09188011091000180918901C81768F13A
:1007700060E08AE00E94B50060E0812F0E94B50031
:1007800010928A0180918401909185010196909345
:1007900085018093840180918601883010F0109249
:1007A0008601FF91EF91DF91CF91BF91AF919F9122
:1007B0008F917F916F915F914F913F912F911F91F9
:1007C0000F900FBE0F901F901895EC2FF0E0EF5F89
:1007D000FE4F608120918701D1E0D20FD093870135
:1007E00081E090E001C0880F2A95EAF76823812F05
:1007F0000E94B500D630A8F210928701CF5FC09357
:100800008801C9CFCF92DF92EF92FF920F931F938F
:10081000E82FF92F05C0015011092109310961F1B3
:10082000908196239417B9F305C00150110921094D
:10083000310911F1908196239413F7CFC12CD12C5B
:10084000E12CF12C0AC08FEFC81AD80AE80AF80A7E
:100850000C151D052E053F0579F080818623841730
:1008600091F36C2D7D2D8E2D9F2D1F910F91FF905B
:10087000EF90DF90CF90089560E070E080E090E02E
:100880001F910F91FF90EF90DF90CF900895CF933D
:10089000DF93CDB7DEB72E970FB6F894DEBF0FBE4D
:1008A000CDBF789484B5826084BD84B5816084BDF9
:1008B00085B5826085BD85B5816085BD80916E00FE
:1008C000816080936E00109281008091810082602F
:1008D000809381008091810081608093810080916C
:1008E00080008160809380008091B100846080935B
:1008F000B1008091B00081608093B00080917A0057
:10090000846080937A0080917A00826080937A007C
:1009100080917A00816080937A0080917A0080686B
:1009200080937A001092C1008CE0809300018EE0E9
:10093000E5E4F1E09E012F5F3F4F7901D90101907D
:100940000D928A95E1F76E0133E0C30ED11C11E0E0
:10095000F601619171916F0190E080E00E94B20711
:100960009B01AC0160E074E284E79BE40E940A070B
:100970009B01AC0160E070E080E89FE30E940A0701
:100980009B01AC016FE672E183E898E30E940A07DD
:100990000E947C074B015C01F2E08F1A9108A108CC
:1009A000B1082DEF82162FEF9206A104B10408F4CE
:1009B000BFC11F5F173061F6623071058105910577
:1009C00050F16115710531E08307910520F5109212
:1009D000800028E02093810020918100122B109349
:1009E0008100709389006093880080916F0082601D
:1009F00080936F0061E0809100010E94E30060E05D
:100A00008BE00E94E30061E08AE00E94E30060E086
:100A10008AE00E94B50061E088E00E94E30060E0A7
:100A200089E00E94E30061E08DE00E94E30082E043
:100A30000E94540261E08DE00E94B50090E080E0E9
:100A40000E9400036FE7262E61E0362E70E0C72E6D
:100A500070E0D72E60E088E00E94B50083E090E06F
:100A60000197F1F761E088E00E94B50083E290E031
:100A70000197F1F760E088E00E94B500E3EAF0E05A
:100A80006491EFE8F0E08491E82FF0E0EE0FFF1FB3
:100A9000E859FF4F8591949100E412E42FE030E093
:100AA000462F0E940204611571058105910529F008
:100AB0006F5F7F4F8F4F9F4F9F700E94B40726E953
:100AC00033E44BE05DE30E94400820E030E040E08A
:100AD0005FE30E9440080E947C07DB0124E630E0CF
:100AE0000E94AD0828EE33E040E050E00E94BA06D4
:100AF000122F032F822F932F61E08E31910524F066
:100B00008A35910524F060E08DE00E94B500812FC8
:100B1000902F0E9400030F931F933F922F92FF92FA
:100B2000EF920E94BA08F70101900020E9F79F01B7
:100B3000215031092E193F09522F0F900F900F901D
:100B40000F900F900F902C3108F0C3C080918A0154
:100B50008111FCCFE3E0E20F6E2F6095F0E16F9F13
:100B6000C0011124682770E0B62FAA27AF6FCB0110
:100B700014E0959587951A95E1F78A279B2703E05E
:100B8000660F771F0A95E1F786279727AE2FB0E00B
:100B900044E0B595A7954A95E1F7A15ABE4F4C910F
:100BA00040930901EF70F0E0E15AFE4F408140931D
:100BB0000A01A1E0B1E087011296402F4E194517B6
:100BC000B8F5F80141918F01E42FE827F0E1EF9F9C
:100BD000B00111246E27E62FF0E0892F9927962B7C
:100BE000BF01689413F8759567951694E1F7682727
:100BF0007927CF01E3E0880F991FEA95E1F786276F
:100C00009727E42FF0E064E0F595E7956A95E1F722
:100C1000E15AFE4F608118966C9318974F70E42F3D
:100C2000F0E0E15AFE4F408119964C931997C4CFDA
:100C3000A901552731E0320F330F80959095DA01E5
:100C4000AA0FBB1FA55FBE4FFC0174E0F695E795A8
:100C50007A95E1F7EF70FF27E15AFE4F60816C93C0
:100C6000440F551FFA01E45FFE4FDC01AF70BB2754
:100C7000A15ABE4F4C9140832E5F220FE22FF0E02D
:100C8000E75FFE4FDC01AB2FBB27A295AF70A15AE7
:100C9000BE4F2C912083A3E0A30FB0E0A75FBE4F0F
:100CA000892F9927FC01EF70FF27E15AFE4F8081C1
:100CB0008C93345F309389011092880110928701E0
:100CC0001092860161E08AE00E94B50081E0809385
:100CD0008A0180918A018111FCCF0E9414014B018D
:100CE0005C0182E3482E512C612C712C0E9414016E
:100CF000681979098A099B09683E73408105910545
:100D0000A8F321E0421A51086108710838EE830EF9
:100D100033E0931EA11CB11C411451046104710401
:100D200029F7C114D10409F495CE0E94000092CE97
:100D3000163009F04CCE6FCEE4E9F1E01382128256
:100D400087E591E09183808387E084838FEF8583BB
:100D500086E0868385E0878384E0808783E08187DF
:100D600082E082871386148615861686178681E0B0
:100D70000C945402052E97FB1EF400940E94D10699
:100D800057FD07D00E94D90607FC03D04EF40C94FF
:100D9000D10650954095309521953F4F4F4F5F4F6D
:100DA000089590958095709561957F4F8F4F9F4FD7
:100DB0000895A1E21A2EAA1BBB1BFD010DC0AA1F9C
:100DC000BB1FEE1FFF1FA217B307E407F50720F0B4
:100DD000A21BB30BE40BF50B661F771F881F991F2F
:100DE0001A9469F760957095809590959B01AC0178
:100DF000BD01CF010895A29FB001B39FC001A39F81
:100E0000700D811D1124911DB29F700D811D112443
:100E1000911D08950E941E070C9406080E94FF076A
:100E200058F00E94F80740F029F45F3F29F00C9435
:100E3000EF0751110C943A080C94F5070E9417081B
:100E400068F39923B1F3552391F3951B550BBB27F9
:100E5000AA2762177307840738F09F5F5F4F220F3E
:100E6000331F441FAA1FA9F335D00E2E3AF0E0E835
:100E700032D091505040E695001CCAF72BD0FE2F7F
:100E800029D0660F771F881FBB1F26173707480713
:100E9000AB07B0E809F0BB0B802DBF01FF279358CB
:100EA0005F4F3AF09E3F510578F00C94EF070C9499
:100EB0003A085F3FE4F3983ED4F3869577956795BB
:100EC000B795F7959F5FC9F7880F911D9695879500
:100ED00097F90895E1E0660F771F881FBB1F62171F
:100EE00073078407BA0720F0621B730B840BBA0BDD
:100EF000EE1F88F7E09508950E9483076894B1116A
:100F00000C943A0808950E941F0888F09F5798F0A3
:100F1000B92F9927B751B0F0E1F0660F771F881FFE
:100F2000991F1AF0BA95C9F714C0B13091F00E9418
:100F30003908B1E008950C943908672F782F882775
:100F4000B85F39F0B93FCCF3869577956795B3953F
:100F5000D9F73EF490958095709561957F4F8F4FAE
:100F60009F4F0895E89409C097FB3EF490958095B3
:100F7000709561957F4F8F4F9F4F9923A9F0F92F5F
:100F800096E9BB279395F695879577956795B795DD
:100F9000F111F8CFFAF4BB0F11F460FF1BC06F5FC3
:100FA0007F4F8F4F9F4F16C0882311F096E911C0D5
:100FB000772321F09EE8872F762F05C0662371F0F6
:100FC00096E8862F70E060E02AF09A95660F771F0A
:100FD000881FDAF7880F9695879597F9089597F9FE
:100FE0009F6780E870E060E008959FEF80EC0895CF
:100FF00000240A94161617061806090608950024F8
:101000000A9412161306140605060895092E039471
:10101000000C11F4882352F0BB0F40F4BF2B11F4E5
:1010200060FF04C06F5F7F4F8F4F9F4F089557FD44
:101030009058440F551F59F05F3F71F04795880F46
:1010400097FB991F61F09F3F79F0879508951216DD
:1010500013061406551FF2CF4695F1DF08C0161689
:1010600017061806991FF1CF86957105610508943A
:101070000895E894BB2766277727CB0197F9089551
:101080000E9453080C9406080E94F80738F00E944A
:10109000FF0720F0952311F00C94EF070C94F5074F
:1010A00011240C943A080E94170870F3959FC1F31D
:1010B000950F50E0551F629FF001729FBB27F00D06
:1010C000B11D639FAA27F00DB11DAA1F649F66275B
:1010D000B00DA11D661F829F2227B00DA11D621FAA
:1010E000739FB00DA11D621F839FA00D611D221F64
:1010F000749F3327A00D611D231F849F600D211D48
:10110000822F762F6A2F11249F5750409AF0F1F0CA
:1011100088234AF0EE0FFF1FBB1F661F771F881F33
:1011200091505040A9F79E3F510580F00C94EF0775
:101130000C943A085F3FE4F3983ED4F38695779594
:101140006795B795F795E7959F5FC1F7FE2B880FD9
:10115000911D9695879597F908950E94FB06B7FF14
:101160000895821B930B0895EE0FFF1F0590F491D5
:10117000E02D0994AEE0B0E0E0ECF8E00C94690BEF
:101180000D891E8986E08C831A8309838FEF9FE780
:101190009E838D83AE01475E5F4F6F89788DCE0150
:1011A00001960E94DD082F813885020F131FF80178
:1011B00010822E96E4E00C94850BABE0B0E0E3EEF9
:1011C000F8E00C945B0B7C013B018A01FC01178267
:1011D0001682838181FFC8C1CE0101965C01F701AF
:1011E0009381F30193FD859193FF81913F018823C2
:1011F00009F453C1853239F493FD859193FF8191B0
:101200003F01853229F4B70190E00E94CD0AE7CF73
:10121000912C212C312CFFE1F31538F08B3211F198
:1012200090F4803209F1833229F137FC3CC020ED83
:10123000280F2A3050F536FE20C08AE0989E200DF7
:101240001124922E06C08D3291F0803371F768948C
:1012500030F8F30193FD859193FF81913F01811156
:10126000DACF21C0689431F8689432F8F2CF6894EC
:1012700033F8EFCF689434F8ECCFEAE02E9E200DDF
:101280001124222E689435F8E4CF8E3229F436FCEE
:1012900004C1689436F8DDCF8C3619F4689437F8B9
:1012A000D8CF8836B1F2982F9F7D95549330E0F0D7
:1012B0008336A1F18337C1F1833509F063C028017A
:1012C000F2E04F0E511CF801C080D180692D70E012
:1012D00036FC02C06FEF7FEFC6010E94B70A4C01D7
:1012E000689437F882010AC00C5F1F4FFFE3F9834F
:1012F00088248394912C6501E89437F833FE2DC03F
:10130000522C8114910471F5552009F468CFB7016E
:1013100080E290E00E94CD0A5A94F6CFF8018081D5
:1013200089830E5F1F4FE4CF2801F2E04F0E511C5E
:10133000F801C080D180692D70E036FC02C06FEFEB
:101340007FEFC6010E94C20A4C018201D5CFB701CE
:1013500080E290E00E94CD0A2A942814190409F032
:10136000B0F7CECFF60137FC859137FE81916F0142
:10137000B70190E00E94CD0A51105A94F1E08F1A03
:101380009108BFCF843619F0893609F077C0F8018B
:1013900037FE6BC060817181828193810C5F1F4F2A
:1013A000F32DFF763F2E97FF09C09095809570959D
:1013B00061957F4F8F4F9F4F689437F82AE030E058
:1013C000A5010E94FD0AC82ECA188C2C432C36FE9B
:1013D0000CC0E89440F8C91440F434FE05C032FC57
:1013E00003C0F32DFE7E4F2E892C44FE95C0FE01D6
:1013F000EC0DF11D8081803309F087C0242D297EFA
:10140000422E842D8870582E43FC95C040FE8FC01C
:101410009C2C821418F42C0C922C981844FE91C029
:10142000B70180E390E00E94CD0A42FE09C088E740
:1014300090E041FE02C088E590E0B7010E94CD0A2D
:10144000C91408F48AC0CA94D12C9FEFC91AD90ACA
:10145000CA0CDB1CF60182916F01B70190E00E947B
:10146000CD0AAC14BD04B1F74FCF60817181072E56
:10147000000C880B990B0E5F1F4F92CFD32CE89472
:10148000D4F82AE030E0853739F1232D297FD22E98
:101490008F3601F148F48835A9F0F70186819781EC
:1014A0002B96E2E10C94770B803749F08837A9F747
:1014B000D4FE02C06894D2F820E130E00DC06894F8
:1014C000D4F8F6CF34FE03C0822F8660D82E20E1F8
:1014D00032E002C028E030E0F801D7FE0FC06081A2
:1014E0007181828193810C5F1F4FA5010E94FD0ACB
:1014F000C82ECA183D2CE89437F867CF60817181F7
:1015000090E080E00E5F1F4FF0CF42FC02C083945A
:1015100078CF8394839475CF842D867809F471CF26
:10152000F6CFB70180E290E00E94CD0A8394821446
:10153000C0F3512C73CF522C5818821408F46ECF7C
:10154000F8CF842D867809F47BCF8BE241FE80E2D0
:1015500047FC8DE2B70190E071CFB70180E390E0E6
:101560000E94CD0A9A946CCF8FEF9FEF99CFFC0128
:101570000590615070400110D8F7809590958E0FBE
:101580009F1F0895FC016150704001900110D8F731
:10159000809590958E0F9F1F08950F931F93CF9363
:1015A000DF93182F092FEB018B8181FD09C01FEFFD
:1015B0000FEF812F902FDF91CF911F910F91089501
:1015C00082FF14C02E813F818C819D8128173907AD
:1015D0003CF4E881F981CF010196998388831083D7
:1015E0008E819F8101969F838E83E3CFE885F98565
:1015F000812F0995892BA1F3DACFFA01AA27283088
:1016000051F1203181F1E8946F936E7F6E5F7F4FCF
:101610008F4F9F4FAF4FB1E03ED0B4E03CD0670F4B
:10162000781F891F9A1FA11D680F791F8A1F911D9E
:10163000A11D6A0F711D811D911DA11D20D009F4EE
:1016400068943F912AE0269F11243019305D319330
:10165000DEF6CF010895462F4770405D4193B3E019
:101660000FD0C9F7F6CF462F4F70405D4A3318F0C0
:10167000495D31FD4052419302D0A9F7EACFB4E071
:10168000A6959795879577956795BA95C9F7009729
:101690006105710508959B01AC010A2E06945795CA
:1016A000479537952795BA95C9F7620F731F841F21
:1016B000951FA01D08952F923F924F925F926F92B7
:1016C0007F928F929F92AF92BF92CF92DF92EF92D2
:1016D000FF920F931F93CF93DF93CDB7DEB7CA1B53
:1016E000DB0B0FB6F894DEBF0FBECDBF09942A887E
:1016F000398848885F846E847D848C849B84AA8426
:10170000B984C884DF80EE80FD800C811B81AA81B2
:10171000B981CE0FD11D0FB6F894DEBF0FBECDBF7D
:08172000ED010895F894FFCFDC
:101728000C2A2A2A2A2A2A382C0000000000000045
:1017380000000000000000000000000000000000A1
:101748000000000000000000000000000000000091
:101758000000000000000000000000000000000081
:101768000000000000000001000800400000010027
:1017780004050D00000000FA023901670166010D39
:101788000E131516191A1C232526292A2C3234570C
:1017980061746572204C6576656C3A2000250025D9
:0217A8006400DB
:00000001FF
